:100000000C9475010C9492010C9492010C941207BB
:100010000C943A070C9492010C9492010C94FD06F6
:100020000C9492010C9492010C9492010C94920104
:100030000C9492010C9492010C9492010C949201F4
:100040000C9492010C9492010C9492010C949201E4
:100050000C9492010C9492010C9492010C949201D4
:100060000C9429030C949201C20370037003700373
:100070007003700370037003CC037003700370038C
:100080007003700370037003CC037003700370037C
:100090007003700370037003D40370037003700364
:1000A0007003700370037003E30370037003700345
:1000B0007003700370037003D40370037003700344
:1000C00070037003700370030E04700370037003F9
:1000D00070037003700370031904700370037003DE
:1000E0007003700370037003960370037003700352
:1000F0007003700370037003A9037003700370032F
:1001000070037003700370038A037003700370033D
:1001100070037003700370039D037003700370031A
:100120007003700370037003B903700370037003EE
:100130007003700370037003B903700370037003DE
:100140007003700370037003B903700370037003CE
:100150007003700370037003B903700370037003BE
:1001600070037003700370038103700370037003E6
:1001700070037003700370038603700370037003D1
:1001800070037003700370038103700370037003C6
:1001900070037003700370038603700370037003B1
:1001A0007003700370037003EE0370037003700339
:1001B00070037003700370034603700370037003D1
:1001C00070037003700370034603700370037003C1
:1001D00070037003700370035B037003700370039C
:1001E0007003700370037003B30370037003700334
:1001F0007003700370037003B3037B20506C616E57
:100200007420205361766572207D0053746F703ABC
:100210000053746172743A004261636B00202020C5
:100220004C69676874204D656E7520202000206D34
:100230006C002020576174657220416D6F756E747B
:100240002020003A204E6F207761746572003A20BA
:10025000576174657220617420004261636B2020D5
:10026000202020202020202020200020576174659D
:1002700072205363686564756C652000202020201F
:10028000202020202020204261636B2020002D00B0
:100290004C3A004C3A206F6666002F2F00573A0008
:1002A0004D6F6E000000005475650000000057653A
:1002B0006400000000546875000000004672690088
:1002C0000000005361740000000053756E000000D0
:1002D000004D6F6E000000002020202020202020F4
:1002E0002020202020202020000011241FBECFEF3E
:1002F000D8E0DEBFCDBF11E0A0E0B1E0E0E5FDE178
:1003000002C005900D92A431B107D9F722E0A4E113
:10031000B1E001C01D92A932B207E1F70E94420D7F
:100320000C94A60E0C9400009BB180FF14C0906149
:1003300081FF14C0906282FF14C0906483FD14C0DA
:10034000892F8F778BB95A985A9A5A9885E88A9547
:10035000F1F7000008959F7E81FDECCF9F7D82FD27
:10036000ECCF9F7B83FFECCF892F8068EBCFCF93BF
:10037000C82F61110BC0589859988C2F82958F7097
:100380000E9494018C2FCF910C949401589AF4CF31
:100390008091B101982F94609093B10160E08C60DE
:1003A0000C94B7018AB1876F8AB98FE39CE90197F2
:1003B000F1F700C000008BB1887F8BB98FE097E226
:1003C0000197F1F700C0000083E00E9494018FE0E4
:1003D00097E20197F1F700C0000083E00E949401CA
:1003E0008FE097E20197F1F700C0000083E00E94E0
:1003F00094018FE097E20197F1F700C0000082E0DE
:100400000E94940160E088E20E94B7011092B1015D
:1004100060E088E00E94B70160E088E00E94B701D8
:1004200060E081E00E94B70160E084E00E94B701D3
:1004300060E082E00E94B7018FE99FE00197F1F749
:1004400000C0000060E081E00E94B7018FE99FE0FA
:100450000197F1F700C000000C94C8018091B10130
:100460008B7F8093B10160E088600C94B70180912C
:10047000B101982F91609093B10160E089600C9474
:10048000B7018091B1018E7F8093B10160E08860F7
:100490000C94B7018091B101982F92609093B101B3
:1004A00060E08A600C94B7018091B1018D7F8093E8
:1004B000B10160E088600C94B7010F931F93CF9354
:1004C000DF93EC01FE012491222389F08E01005F6D
:1004D0001F4F2196FC01849161E00E94B701CE017B
:1004E000FE012491222319F0C017D10791F7DF9163
:1004F000CF911F910F91089560E080EC0E94B701A9
:1005000088ED92E00E945D0260E080E80E94B70101
:1005100088ED92E00C945D0260E080E80E94B701F3
:1005200088ED92E00C945D02413290F59091B0011B
:100530009111FCCF91E09093B0019FEF9093450112
:1005400010928A01940F90938901880F81608093A3
:10055000AF0185EE8093BC008091B0018130E1F362
:1005600080918A01841788F0442391F0EBE8F1E050
:10057000DB012FEF240F30E024573E4F91919D93E4
:10058000E217F307D9F7842F089540918A01ECCF41
:1005900080E008954132C8F59091B0019111FCCFEF
:1005A00092E09093B0019FEF9093450110928A01E1
:1005B00040938901442369F0FB01ABE8B1E06F5F30
:1005C0007F4F4150640F711D91919D93E617F7077E
:1005D000D9F790E0880F991F8093AF0185EE809343
:1005E000BC00222321F08091B0018230E1F38091A0
:1005F00045018F3F71F080914501803241F080913B
:100600004501803341F084E0089581E0089582E05F
:10061000089580E0089583E00895613230F42091D8
:10062000B001243021F082E0089581E008956093C4
:100630006701662361F0FC01A9E6B1E00196615013
:10064000860F911D21912D93E817F907D9F780E0C6
:1006500008951F920F920FB60F9211242F933F937C
:100660004F935F936F937F938F939F93AF93BF93BA
:10067000EF93FF938091B900887F90E0893C9105CA
:1006800078F5FC01EC5CFF4F0C94EA0D84E080935C
:10069000B0011092680110926701E091AD01F091F4
:1006A000AE01099580916701811105C081E08093B9
:1006B000670110926901E091680181E08E0F8093DB
:1006C0006801F0E0E759FE4F80818093BB00909174
:1006D0006801809167019817C8F485EC8093BC008D
:1006E000FF91EF91BF91AF919F918F917F916F910A
:1006F0005F914F913F912F910F900FBE0F901F90E0
:10070000189580914601803208F49CC085E880935A
:10071000BC00E6CFE0918A0181E08E0F80938A01D0
:100720008091BB00F0E0E557FE4F808390918A01F5
:1007300080918901981750F7D0CFE0918A0181E02C
:100740008E0F80938A018091BB00F0E0E557FE4F49
:10075000808385ED8093BC008091BC0084FDFCCF3C
:100760001092B001BDCF85EC8093BC001092B00117
:10077000B7CF83E08093B0011092460185EC80935F
:10078000BC00AECF1092450185ED8093BC008091F6
:10079000BC0084FDFCCFE4CF8091AF018093BB000F
:1007A00085EC8093BC009CCF90918A018091890157
:1007B000981708F45EC085ED8093BC008091BC0062
:1007C00084FDFCCFCDCF80E28093450185ED809301
:1007D000BC008091BC0084FDFCCFC2CF809146015B
:1007E000803208F43FC085ED8093BC008091BC004E
:1007F00084FDFCCF1092B0016091460170E0E09161
:10080000AB01F091AC0187E491E0099510924601AB
:1008100085EC8093BC001092B00162CF80E380939E
:10082000450185ED8093BC008091BC0084FDFCCF28
:1008300097CF88E38093450185EC8093BC001092AC
:10084000B0014ECFE091460181E08E0F80934601CA
:100850008091BB00F0E0E95BFE4F808385EC8093E4
:10086000BC003ECFE0914601F0E0E95BFE4F108214
:10087000BACFE0918A0181E08E0F80938A01F0E087
:10088000E557FE4F80818093BB0085EC8093BC00D0
:1008900027CF462F613208F040E265EC71E00E94FC
:1008A00094021092440180934301089521E0409105
:1008B000400166EF71E0809142010E94CA021092ED
:1008C00041011092400110923F010895CF93DF93B0
:1008D0001F92CDB7DEB7898380913F018823C9F08D
:1008E00080914001803220F00F90DF91CF910895E8
:1008F00080914101E82FF0E0EA50FE4F998190830A
:100900008F5F80934101809340010F90DF91CF91E1
:10091000089561E0CE0101960E940D030F90DF91D2
:10092000CF91089591E090933F0198E69093420112
:1009300010924101109240010E9466040E945604E8
:1009400061E088E60E94490490914401809143014E
:10095000981748F4E92FF0E0EB53FE4F80819F5F3A
:1009600090934401089580E00895CF93C82F862F77
:1009700091E090933F0198E69093420110924101DB
:10098000109240010E9466048C2F0E946604CF9151
:100990000C945604CF93DF9381E10E949204D82FE8
:1009A00082E10E949204C82F61E18EEE0E94B5049C
:1009B00062E18DED0E94B50481E10E9492048E3EB9
:1009C00031F081E080933D01DF91CF91089582E184
:1009D0000E9492048D3DA9F781E080933E0161E180
:1009E0008D2F0E94B50462E18C2FDF91CF910C9482
:1009F000B504CF93DF93CDB7DEB729970FB6F89440
:100A0000DEBF0FBECDBF81E080933F0188E68093BB
:100A10004201109241011092400180E00E94660460
:100A20000E94560467E088E60E9449044091430111
:100A300020914401FE013196CE0108960AC0A22FF2
:100A4000B0E0AB53BE4F3C912F5F3193E817F907ED
:100A500039F02417A0F330E03193E817F907C9F70C
:100A6000209344010E9456042981922F96959695D1
:100A700096959E70892F880F880F890F2F70820F8F
:100A800090E090931702809316028A81982F929596
:100A90009F708F702AE0929F800D112490E09093B8
:100AA0001902809318028B81982F92959F708F70F6
:100AB0004AE0949F800D112490E090931B02809354
:100AC0001A022D81322F32953F702F704AE0349FE9
:100AD000200D112430E030931D0220931C024E8122
:100AE00044FB332730F9330F232F220F220F230F1C
:100AF000342F3F70230F30E030931F0220931E02EB
:100B00002F81322F32953F702F7047FD40C04AE051
:100B1000349F200D112430E02459384F30932102A6
:100B2000209320022C81322F32953F702F704AE0A3
:100B3000349F200D112430E03093230220932202B1
:100B40000097E9F08C30910594F00C979093260271
:100B5000809325021092240286E192E029960FB636
:100B6000F894DEBF0FBECDBFDF91CF910895909373
:100B700026028093250281E080932402EDCF10921B
:100B800026021092250281E080932402E5CF4AE0FC
:100B9000349F200D112430E02053384FBFCF0F93E6
:100BA0001F93CF93DF93EC0181E080933F0188E6B0
:100BB00080934201109241011092400180E00E9416
:100BC00066048A859B85813D27E092070CF069C009
:100BD0008C5697409B878A8700E088811DEC819F17
:100BE000912D112496959695969536E0939F800DBC
:100BF00011240E9466048A81819F912D112496956B
:100C00009695969526E0929F800D11240E94660489
:100C10008C81819F912D112496959695969536E01D
:100C2000939F800D11240E9466048C85819F912DD5
:100C3000112496959695969526E0929F800D112405
:100C40000E9466048E81819F912D11249695969520
:100C5000969536E0939F800D11240E9466042885A6
:100C6000219F912D1124969596959695822F36E089
:100C7000939F800D1124800F0E9466048A85819FB6
:100C8000112D112416951695169596E0199F800D35
:100C900011240E946604DF91CF911F910F910C9453
:100CA0005604805D97409B878A8700E896CFCF9354
:100CB000DF93EC018A814AE0BE018A3064F5615F0E
:100CC0007F4F992787FD90950E94380E80E38E878D
:100CD0008B814AE0BE018A3054F5645F7F4F9927CB
:100CE00087FD90950E94380E80E38B878C818A3037
:100CF00044F1682F772767FD7095872F972F2AE09B
:100D0000AE01485F5F4F0E94430E8AE38A878D875A
:100D1000DF91CF910895625F7F4F992787FD90956E
:100D20000E94380E8B814AE0BE018A30B4F2655FC2
:100D30007F4F992787FD90950E94380E8C818A30CD
:100D4000C4F64AE0BE01675F7F4F992787FD909503
:100D50000E94380E80E388878AE38A878D87DF9137
:100D6000CF910895CF939091EC0191110EC02091F5
:100D7000E5013091E601280F311D3093E601209303
:100D8000E501283E83E0380714F4CF910895285EEA
:100D900033403093E6012093E501C091E9010E94C0
:100DA000F904809116028093E701809118028093E4
:100DB000E80180911A028093E90190912202973014
:100DC00079F09093EA01811102C0C73161F085EE9C
:100DD00091E00E94570681E08093EB01CF91089546
:100DE0001092EA01F0CFE091EA0184E0E802F0011C
:100DF0001124E45EFE4F1382EACF1F920F920FB6CA
:100E00000F9211248F931092380110923901809122
:100E10003A018C5F80933A018F910F900FBE0F9033
:100E20001F9018951F920F920FB60F9211242F93B7
:100E30008F939F9323B190913901911113C08091A9
:100E400039018F5F8093390121FB882780F99091C8
:100E50000401891739F08093040191E0811190E039
:100E600090933C019F918F912F910F900FBE0F9007
:100E70001F9018951F920F920FB60F9211242F9367
:100E80003F934F935F938F939F9356B18091380117
:100E900081111CC0809138018F5F80933801452FEC
:100EA000417021E030E0809114014817D1F0842F87
:100EB00090E082239323892B39F056955170451782
:100EC000C9F081E080933B01409314019F918F9181
:100ED0005F914F913F912F910F900FBE0F901F90F8
:100EE000189520E030E0842F90E082239323892B13
:100EF00059F3E3CF8FEF80933B01E6CFCF92DF92A0
:100F0000EF92FF92E091EA0190911901309118015E
:100F10002091E90193173CF529179CF023178CF4D5
:100F200040911701411183C02A9A91E090931701D3
:100F300090911901291754F030911801432F23176C
:100F4000CCF040911701442309F471C02A98109203
:100F50001701909119014091180194130DC02A981E
:100F60001092170109C029170CF052C0432F241703
:100F70000CF05FC0941799F3F0E0EE0FFF1FEE0F37
:100F8000FF1FE45EFE4F928191113DC09091EC01F4
:100F9000911139C09081921709F454C04091000119
:100FA0005091010160910201709103014F3F9FEF49
:100FB00059076907790739F16A017B01C80ED11C0D
:100FC000E11CF11CC0920001D0920101E0920201EB
:100FD000F0920301A0911A01B0911B012AE031E0C7
:100FE0000E94F00DC616D706E806F90664F02898A8
:100FF0008FEF9FEFDC018093000190930101A0939C
:101000000201B0930301FF90EF90DF90CF9008951D
:10101000409117014111AACF931711F12A9A91E03B
:10102000909317014091180190911901A0CF432F7F
:10103000A1CF29170CF09ECF90911701992309F4A5
:101040009BCF84CF93819111A9CF9181992309F4EA
:10105000A5CF289A91E0938340E050E0BA01ACCF4D
:10106000492F88CFF999FECF8AE090E092BD81BDEB
:10107000F89A80B580931901F999FECF8CE090E041
:1010800092BD81BDF89A80B580931801F999FECF81
:101090008EE090E092BD81BDF89A80B52AE0829FF3
:1010A000C001112490931B0180931A01EDE1F1E03E
:1010B00082E190E031E0F999FECF92BD81BDF89ACE
:1010C00020B5DF0111972C93283139F03083349605
:1010D00001968931910579F708951082F8CFF99931
:1010E000FECF92BD81BDF89A20B5621749F0F999FB
:1010F000FECF92BD81BD60BDF894FA9AF99A7894BA
:101100000895DF92EF92FF920F931F93CF93DF9397
:10111000CDB7DEB729970FB6F894DEBF0FBECDBFAF
:10112000F82EE62E142F0E942E02809106018111C6
:1011300019C080910701811153C1809105018F0D64
:1011400084300CF4B7C09CEF890F80930501FF2019
:1011500019F081E080930801E11028C18091080115
:10116000F12C07C080910701882309F430C18091D8
:101170000801811124C1112309F45EC010920501F8
:101180008091EB01811109C08091EC01811105C0B2
:1011900080910901882309F4A0C219821A821B8256
:1011A00060E081E80E94B7018091EA0127E08202B5
:1011B000C001112480569D4F0E945D0260E086E8C8
:1011C0000E94B7018091ED01882351F00EEE11E0ED
:1011D00061E00E94B701F80181918F018111F8CF80
:1011E00080910601882309F4B3C2813009F45EC3FB
:1011F0001092EB01813009F42AC2823009F447C20F
:101200008091150180310CF4CCC0805D806860E075
:101210000E94B7010E94C8011092090129960FB6D9
:10122000F894DEBF0FBECDBFDF91CF911F910F911C
:10123000FF90EF90DF90089580910501813009F4CF
:1012400040C00CF464C1823009F474C08330C1F62C
:101250008091090181115EC180910601813009F4FC
:10126000AAC1823069F6FF2099F0809116018111A0
:101270003FC3809119018F0D88310CF0B5C387FDF4
:10128000F5C390E0890F8093190181E080930801F4
:10129000EE2009F4B5CF81E080930601809116011C
:1012A000882309F460C3813009F4CEC381E08093C0
:1012B0000801A6CF982F991F9927991F990F990F69
:1012C00043CF809109018111C7C08091060181300F
:1012D00009F495C1823009F093CF809116019927C6
:1012E00087FD90959C01220F331F220F331FF901B8
:1012F000E45EFE4F41E0428340814F0D49310CF0E6
:10130000EFC147FD6DC350E0450FF901E45EFE4FAC
:101310004083483109F4D3C241E04183E110B6C2B1
:10132000FF2019F081E08093080184E1809315018A
:1013300084EC6DCF80910901811161C0809106011B
:10134000813009F05DCFFF2029F180911A01909141
:101350001B018436910509F4BEC29C01215031095C
:101360002336310508F0DDC22F2D3AE02302800D2F
:10137000911D1124883E23E092070CF4B4C228E1A9
:101380003CEF820F931F90931B0180931A0181E021
:1013900080930801E110B9C180E18093150180ECD0
:1013A00036CF60E080680E94B70134CF81E080933F
:1013B00006018093080110921601E12CF12C0E9485
:1013C0007C021092080181E080930901D4CE0E9432
:1013D0004A0281E080930701809106018111C7CE06
:1013E0000E94540210920701809106018111BFCE24
:1013F000809105018F0D84300CF45CCFA4CE6091F8
:101400001A0170911B01882777FD8095982F2AE09B
:10141000AE014F5F5F4F0E94430E60E080E80E9484
:10142000B70182E392E00E945D0260E080EC0E94DE
:10143000B7018981882359F08E010E5F1F4F61E04B
:101440000E94B701F80181918F018111F8CF8EE2DE
:1014500092E00E945D0272CF60E080E80E94B701D6
:101460008BE692E00E945D0280910601882309F4D8
:10147000C7CE60E080EC0E94B701809116018730F2
:1014800009F4D6C2F7E08F02C001112480569D4FA7
:101490000E945D02E091160124E0E202F0011124B5
:1014A000E45EFE4F8181882309F4A5C28EE492E0B8
:1014B0000E945D0219821A821B82E091160134E0BB
:1014C000E302F0011124E45EFE4F208197E6290239
:1014D000912D11249595959527FD939580E3890F7E
:1014E0008983D22EEAE09E9FD0181124F0E3DF0E0C
:1014F000DA828E010D5F1F4F04C08D2DF801D1904F
:101500008F0161E00E94B701D110F7CFDECE8111CB
:1015100077CE36CE809119014AE0BE01695F7F4FD8
:10152000992787FD90950E94380E809118014AE016
:10153000BE016F5F7F4F992787FD90950E94380EFF
:1015400060E080E80E94B7018DE192E00E945D02B8
:101550008091160160E0823009F4CFC080EC0E94D7
:10156000B70181E192E00E945D028F81882359F0EA
:101570008E01085F1F4F61E00E94B701F801819161
:101580008F018111F8CF60E089EC0E94B7018BE0F8
:1015900092E00E945D028981882309F45DCE8E016C
:1015A0000E5F1F4F61E00E94B701F80181918F012A
:1015B0008111F8CF51CE80911601FF2069F08F0D77
:1015C00083300CF086C187FD3DC290E0890F809387
:1015D000160191E090930801EE2009F489C0823051
:1015E00009F4F8C192E09093060191E0909308010C
:1015F000813009F494C186E18093150106CE809173
:1016000016018F0D88300CF071C0982F991F992703
:10161000991F990F990F990F890F80931601EE204A
:1016200009F426C1873009F04CC11092060181E00F
:101630008093080180E090E190931501FF2009F468
:1016400015C191E090930801E12CF12C43CE8091DB
:1016500016018F0D85300CF445C09BEF890F8093E8
:101660001601823009F464C10CF004C1882309F426
:1016700063C1813009F05BC086E080931501EE20E4
:1016800009F4BECD82E080930601E12CF12C81E0CB
:101690008093EC010E94370280911601813009F499
:1016A000BBC10CF451C1823009F4AAC1833061F48A
:1016B0008091E7018F0D8C330CF0CDC187FDDAC12D
:1016C00090E0890F8093E701E11054C185EE91E02D
:1016D0000E9457068091150195CD809106018ACD13
:1016E00057EE12CE87FD7EC190E0B8CF98EF94CF31
:1016F000823009F07DCF80E17FCF80EC0E94B7017E
:1017000088E192E00E945D02A7CD1092060181E07F
:101710008093080180911A0190911B016AE070E0AA
:101720000E94D60D8EE090E00E946F0835CEEE202C
:1017300009F466CD87FD64CD84300CF4A3CF8430EA
:1017400009F05ECD1092060181E08093080158CD2A
:1017500060E080EC0E94B7018DE992E00E945D029A
:10176000E091EA0124E0E202F0011124E45EFE4F80
:101770002081283109F43AC197E62902912D1124DC
:101780009595959527FD939580E3890F8983D22EB2
:101790003AE0939FD018112490E3D90EDA828E019B
:1017A0000D5F1F4F04C08D2DF801D1908F0161E0B6
:1017B0000E94B701D110F7CF60E088EC0E94B7011A
:1017C0009091180180911901981709F4A1C080E93E
:1017D00092E00E945D022091190197E62902912D65
:1017E00011249595959527FD939580E3890F89831D
:1017F000D22EFAE09F9FD018112420E3D20EDA8275
:101800008E010D5F1F4F04C08D2DF801D1908F0107
:1018100061E00E94B701D110F7CF8EE892E00E94FC
:101820005D022091180197E62902912D11249595CA
:10183000959527FD939580E3890F8983D22E3AE011
:10184000939FD018112490E3D90EDA828E010D5F98
:101850001F4F04C08D2DF801D1908F0161E00E94CF
:10186000B701D110F7CF80910601C2CCE12C32CD67
:1018700081E0E1CE833009F463C0843009F057CFB2
:101880008BE180931501E1105DCFBACC11E010938C
:101890000601F901E45EFE4F1282608142960E94C9
:1018A0006F080E944102109308013ACD60E080EC7D
:1018B0000E94B7018CE792E00E945D02D4CF1182B2
:1018C0002DCD82E0809306010E94370280910601AF
:1018D000B2CE9DEF7BCEF1E0FF1609F4C4C03AE52D
:1018E00020E0832F922F97FDAAC020E030E049CD61
:1018F000813009F0CACC809118018F0D88310CF02D
:101900009CC087FDB5C090E0890F80931801BDCCC5
:1019100083E992E00E945D028091060169CC8EE12C
:101920006BCEEF2DF2E3EF02800D911D112422CD3D
:1019300089E080931501A3CE81E0809315019FCEAD
:101940008CE0809315019BCE8111BECE8091EA017F
:101950008F0D87300CF083C087FD92C090E0890F17
:101960008093EA01B1CE609119018AE090E00E9473
:101970006F089CCC81E0809306010E944102809117
:10198000E701992787FD909590931702809316029F
:101990008091E801992787FD909590931902809393
:1019A00018028091E901992787FD909590931B0279
:1019B00080931A028091EA01992787FD9095909370
:1019C00023028093220286E192E00E94CF051092CA
:1019D000EC017CCE109206011092160180E005CE3B
:1019E00059E192CC95E03ACE98EE4CCC8AE992E05F
:1019F0000E945D02E1CE83E492E00E945D0265CC2C
:101A00008091E8018F0D8C3364F587FD35C090E03F
:101A1000890F8093E80158CE8091E9018F0D8831BC
:101A2000E4F487FD2BC090E0890F8093E9014CCE50
:101A30008AE592E00E945D0248CC98EE65CF28EEE0
:101A400033E09FCC93E0C2CD609118018CE090E030
:101A50000E946F082BCC94EC34CE98EEE5CF99EF32
:101A60007ECF94ECD5CF36E920E03BCF98E10ACC8D
:101A700098E14ACF9CE325CE9CE3CACF98E1D4CF2E
:101A800097E06DCF289A2A9A2F9A2F9A28982A9809
:101A900023E02093B00085E08093B1008DE7809330
:101AA000B30092E090937000219887B18C7F87B942
:101AB000299A88B1836088B92093680081E0809377
:101AC0006C0090936B000E9432080E94D2018AEF52
:101AD00091E00E945D022FEF89E698E1215080405D
:101AE0009040E1F700C000000E948C0278941092B0
:101AF000EB011092E6011092E5010E94CA0480E118
:101B000091E00E941A0E8C5F8093E7018DE091E0D6
:101B10000E941A0E8093E8018AE091E00E941A0E5A
:101B20008093E90186E08093EA010E94F9048091A4
:101B300016028093E701809118028093E80180915A
:101B40001A028093E901809122028093EA0185EED6
:101B500091E00E945706C0E0D0E080913A018111E7
:101B600014C0C837D105C8F7C857D10960913C01E6
:101B700080913B0140E00E94810810923B0110924D
:101B80003C0180913A01882361F380913A01809170
:101B90003A01C80FD11D80913A010E94B20680918E
:101BA0003A010E947E0710923A01DBCF97FB072E85
:101BB00016F4009407D077FD09D00E94F70D07FCBA
:101BC00005D03EF4909581959F4F0895709561954D
:101BD0007F4F0895EE0FFF1F0590F491E02D0994BB
:101BE0000E940B0EB7FF0895821B930B0895AA1B4A
:101BF000BB1B51E107C0AA1FBB1FA617B70710F0F8
:101C0000A61BB70B881F991F5A95A9F78095909529
:101C1000BC01CD010895A29FB001B39FC001A39F55
:101C2000700D811D1124911DB29F700D811D112415
:101C3000911D0895FC0188279927E894219120326D
:101C4000E9F3293010F02E30C8F32B3241F02D3259
:101C500039F4689404C00E94520E820F911D2191A4
:101C600020532A30C0F31EF4909581959F4F08951C
:101C7000BB274A3031F4992322F4BDE29095819537
:101C80009F4F0C947D0EBB272A3051F4992342F4C8
:101C9000BDE290958095709561957F4F8F4F9F4FD6
:101CA0000C945B0E7AE0979F902D879F802D910D6D
:101CB00011240895BB27FA01A62F6217710581052B
:101CC0009105330B30FB66F0AA27660F771F881F3C
:101CD000991FAA1FA21710F0A21B63953850A9F7ED
:101CE000A05DAA3308F0A95DA19336F7B111B193B5
:101CF0001082CA010C94960EBB27FB015527AA2718
:101D0000880F991FAA1FA41710F0A41B8395505188
:101D1000B9F7A05DAA3308F0A95DA193009779F700
:101D2000B111B1931192CB010C94960EDC01FC0120
:101D3000672F71917723E1F7329704C07C916D93FF
:101D400070836291AE17BF07C8F30895F894FFCF70
:101D5000FFFFFFFF01000000010031303A30373A49
:041D60003432000019
:00000001FF
