:100000000C9475010C9492010C9492010C942307AA
:100010000C9448070C9492010C9492010C940E07D6
:100020000C9492010C9492010C9492010C94920104
:100030000C9492010C9492010C9492010C949201F4
:100040000C9492010C9492010C9492010C949201E4
:100050000C9492010C9492010C9492010C949201D4
:100060000C942A030C949201C50373037303730366
:100070007303730373037303CF0373037303730374
:100080007303730373037303CF0373037303730364
:100090007303730373037303D7037303730373034C
:1000A0007303730373037303E6037303730373032D
:1000B0007303730373037303D7037303730373032C
:1000C00073037303730373031104730373037303E1
:1000D00073037303730373031C04730373037303C6
:1000E000730373037303730399037303730373033A
:1000F0007303730373037303AC0373037303730317
:1001000073037303730373038D0373037303730325
:100110007303730373037303A00373037303730302
:100120007303730373037303BC03730373037303D6
:100130007303730373037303BC03730373037303C6
:100140007303730373037303BC03730373037303B6
:100150007303730373037303BC03730373037303A6
:1001600073037303730373038403730373037303CE
:1001700073037303730373038903730373037303B9
:1001800073037303730373038403730373037303AE
:100190007303730373037303890373037303730399
:1001A0007303730373037303F10373037303730321
:1001B00073037303730373034903730373037303B9
:1001C00073037303730373034903730373037303A9
:1001D00073037303730373035E0373037303730384
:1001E0007303730373037303B6037303730373031C
:1001F0007303730373037303B6037B20506C616E48
:100200007420205361766572207D0053746F703ABC
:100210000053746172743A004261636B00202020C5
:100220004C69676874204D656E7520202000206D34
:100230006C002020576174657220416D6F756E747B
:100240002020003A204E6F207761746572003A20BA
:10025000576174657220617420004261636B2020D5
:10026000202020202020202020200020576174659D
:1002700072205363686564756C652000202020201F
:10028000202020202020204261636B2020002D00B0
:100290004C3A004C3A206F6666002F2F00573A0008
:1002A0004D6F6E000000005475650000000057653A
:1002B0006400000000546875000000004672690088
:1002C0000000005361740000000053756E000000D0
:1002D000004D6F6E000000002020202020202020F4
:1002E0002020202020202020000011241FBECFEF3E
:1002F000D8E0DEBFCDBF11E0A0E0B1E0E4ECFDE16D
:1003000002C005900D92A431B107D9F722E0A4E113
:10031000B1E001C01D92A932B207E1F70E947C0D45
:100320000C94E00E0C9400009091B0019111FCCF60
:1003300091E09093B0019FEF9093450110928A0154
:10034000940F90938901880F81608093AF0185EEAF
:100350008093BC008091B0018130E1F380918A01EB
:10036000841710F440918A01442379F0ABE8B1E09E
:10037000FB012FEF240F30E02F5F3F4F260F371F79
:100380009D919193E217F307D9F7842F08959BB1BC
:1003900080FF14C0906181FF14C0906282FF14C07E
:1003A000906483FD14C0892F8F778BB95A985A9A1D
:1003B0005A9885E88A95F1F7000008959F7E81FD9F
:1003C000ECCF9F7D82FDECCF9F7B83FFECCF892F0D
:1003D0008068EBCFCF93C82F61110BC05898599804
:1003E0008C2F82958F700E94C7018C2FCF910C9417
:1003F000C701589AF4CF8091B101982F94609093DF
:10040000B10160E08C600C94EA018AB1876F8AB90F
:100410008FE39CE90197F1F700C000008BB1887F62
:100420008BB98FE097E20197F1F700C0000083E0FD
:100430000E94C7018FE097E20197F1F700C000002A
:1004400083E00E94C7018FE097E20197F1F700C0B7
:10045000000083E00E94C7018FE097E20197F1F767
:1004600000C0000082E00E94C70160E088E20E94B4
:10047000EA011092B10160E088E00E94EA0160E0C8
:1004800088E00E94EA0160E081E00E94EA0160E009
:1004900084E00E94EA0160E082E00E94EA018FE9C4
:1004A0009FE00197F1F700C0000060E081E00E944A
:1004B000EA018FE99FE00197F1F700C000000C947A
:1004C000FB018091B1018B7F8093B10160E0886076
:1004D0000C94EA018091B101982F91609093B10141
:1004E00060E089600C94EA018091B1018E7F809375
:1004F000B10160E088600C94EA018091B101982F0D
:1005000092609093B10160E08A600C94EA0180915E
:10051000B1018D7F8093B10160E088600C94EA01A5
:100520000F931F93CF93DF93EC01FC0184918823F9
:1005300081F08E01005F1F4FFE012196849161E0E2
:100540000E94EA01FE018491882319F0C017D107A7
:1005500099F7DF91CF911F910F91089560E080ECA2
:100560000E94EA0188ED92E00E94900260E080E83B
:100570000E94EA0188ED92E00C94900260E080E82D
:100580000E94EA0188ED92E00C9490024132D8F585
:100590003091B0013111FCCF92E09093B0019FEF08
:1005A0009093450110928A0140938901442371F090
:1005B000FB01ABE8B1E0415050E04F5F5F4F460FA9
:1005C000571F91919D93E417F507D9F790E0880F95
:1005D000991F8093AF0185EE8093BC00222321F008
:1005E0008091B0018230E1F3809145018F3F49F065
:1005F00080914501803251F080914501803349F06E
:1006000034E0832F089531E0832F089532E0832F63
:10061000089533E0F6CF613230F42091B0012430F8
:1006200021F082E0089581E00895609367016623D8
:1006300079F0FC01A9E6B1E06150262F30E02F5F90
:100640003F4F280F391F81918D93E217F307D9F798
:1006500080E008951F920F920FB60F9211242F93EE
:100660003F934F935F936F937F938F939F93AF933A
:10067000BF93EF93FF938091B900E82FE87F8E2F0F
:1006800090E0893C910578F5FC01EC5CFF4F0C94FF
:10069000240E84E08093B0011092680110926701EB
:1006A000E091AD01F091AE01099580916701811152
:1006B00005C081E08093670110926901E0916801B3
:1006C00081E08E0F80936801F0E0E759FE4F808152
:1006D0008093BB0090916801809167019817C8F4DE
:1006E00085EC8093BC00FF91EF91BF91AF919F91FA
:1006F0008F917F916F915F914F913F912F910F90CB
:100700000FBE0F901F90189580914601803208F41B
:100710009CC085E88093BC00E6CFE0918A0181E02F
:100720008E0F80938A018091BB00F0E0E557FE4F69
:10073000808390918A0180918901981750F7D0CFDA
:10074000E0918A0181E08E0F80938A018091BB0045
:10075000F0E0E557FE4F808385ED8093BC008091EB
:10076000BC0084FDFCCF1092B001BDCF85EC80931E
:10077000BC001092B001B7CF83E08093B00110921B
:10078000460185EC8093BC00AECF1092450185ED0B
:100790008093BC008091BC0084FDFCCFE4CF8091AD
:1007A000AF018093BB0085EC8093BC009CCF9091FF
:1007B0008A0180918901981708F45EC085ED8093C5
:1007C000BC008091BC0084FDFCCFCDCF80E2809343
:1007D000450185ED8093BC008091BC0084FDFCCF79
:1007E000C2CF80914601803208F43FC085ED8093EE
:1007F000BC008091BC0084FDFCCF1092B0016091E0
:10080000460170E0E091AB01F091AC0187E491E02A
:1008100009951092460185EC8093BC001092B001BE
:1008200062CF80E38093450185ED8093BC00809189
:10083000BC0084FDFCCF97CF88E38093450185EC15
:100840008093BC001092B0014ECFE091460181E050
:100850008E0F809346018091BB00F0E0E95BFE4F74
:10086000808385EC8093BC003ECFE0914601F0E0B0
:10087000E95BFE4F1082BACFE0918A0181E08E0FD2
:1008800080938A01F0E0E557FE4F80818093BB00A2
:1008900085EC8093BC0027CF462F613208F040E200
:1008A00065EC71E00E949401109244018093430131
:1008B000089521E04091400166EF71E0809142018E
:1008C0000E94C602109241011092400110923F0115
:1008D0000895CF93DF931F92CDB7DEB789838091C0
:1008E0003F018823C9F080914001803220F00F90B1
:1008F000DF91CF91089580914101E82FF0E0EA5017
:10090000FE4F998190838F5F8093410180934001D6
:100910000F90DF91CF91089561E0CE0101960E9482
:100920000B030F90DF91CF91089591E090933F01D9
:1009300098E69093420110924101109240010E946A
:1009400069040E94590461E088E60E944C04909179
:10095000440180914301981748F4E92FF0E0EB53EC
:10096000FE4F80819F5F90934401089580E0089539
:10097000CF93C82F862F91E090933F0198E69093F4
:10098000420110924101109240010E9469048C2F93
:100990000E946904CF910C945904CF93DF9381E1B5
:1009A0000E949504D82F82E10E949504C82F61E12E
:1009B0008EEE0E94B80462E18DED0E94B80481E1E0
:1009C0000E9495048E3E31F081E080933D01DF91DD
:1009D000CF91089582E10E9495048D3DA9F781E0B1
:1009E00080933E0161E18D2F0E94B80462E18C2F5B
:1009F000DF91CF910C94B804CF93DF93CDB7DEB7DE
:100A000029970FB6F894DEBF0FBECDBF81E080936B
:100A10003F0188E68093420110924101109240010B
:100A200080E00E9469040E94590467E088E60E9401
:100A30004C044091430180914401FE0131969E0196
:100A4000285F3F4F0AC0A82FB0E0AB53BE4F9C9128
:100A50008F5F9193E217F30739F08417A0F390E0CA
:100A60009193E217F307C9F7809344010E94590458
:100A70009981892F8695869586958E70282F220FCD
:100A8000220F820F9F70980F892F90E0909317028A
:100A9000809316028A81982F92959F708F702AE01A
:100AA000929F800D112490E0909319028093180278
:100AB0004B81842F82958F704F705AE0859F400D37
:100AC0001124242F30E030931B0220931A028D81D1
:100AD000982F92959F708F705AE0959F800D1124EA
:100AE00090E090931D0280931C025E8154FB882746
:100AF00080F9880F982F990F990F890F952F9F7064
:100B0000890F90E090931F0280931E028F81982F8F
:100B100092959F708F7057FD40C05AE0959F800D51
:100B2000112490E08459984F9093210280932002E1
:100B30008C81982F92959F708F705AE0959F800DB1
:100B4000112490E090932302809322024423E9F041
:100B50004C3098F02C503109309326022093250216
:100B60001092240286E192E029960FB6F894DEBF37
:100B70000FBECDBFDF91CF91089530932602209311
:100B8000250281E080932402EDCF1092260210927C
:100B9000250281E080932402E5CF5AE0959F800DE5
:100BA000112490E08053984FBFCF0F931F93CF93A2
:100BB000DF938C0181E080933F0188E680934201BE
:100BC000109241011092400180E00E946904F801F6
:100BD00082859385813DF7E09F070CF071C08C56AC
:100BE0009740F80193878287D0E0F8018081CDECAF
:100BF0008C9F912D1124969596959695F6E09F9F42
:100C0000800D11240E946904F80182818C9F912D2E
:100C10001124969596959695F6E09F9F800D112448
:100C20000E946904F80184818C9F912D112496956E
:100C300096959695F6E09F9F800D11240E94690479
:100C4000F80184858C9F912D112496959695969503
:100C5000F6E09F9F800D11240E946904F8018681AF
:100C60008C9F912D1124969596959695F6E09F9FD1
:100C7000800D11240E946904F80190859C9F212D0C
:100C80001124269526952695892FF6E02F9F800D15
:100C900011248D0F0E946904F80182858C9FC12D5B
:100CA0001124C695C695C695F6E0CF9F800D1124F8
:100CB0000E946904DF91CF911F910F910C94590408
:100CC000805D9740F80193878287D0E88ECFCF93DD
:100CD000DF93EC018A814AE0BE018A305CF5615FF6
:100CE0007F4F082E000C990B0E94720E80E38E87B6
:100CF0008B814AE0BE018A304CF5645F7F4F082E3D
:100D0000000C990B0E94720E80E38B878C818A30D5
:100D10003CF1682F880F770B880B990B2AE0AE0106
:100D2000485F5F4F0E947D0E8AE38A878D87DF913F
:100D3000CF910895625F7F4F082E000C990B0E949F
:100D4000720E8B814AE0BE018A30BCF2655F7F4F34
:100D5000082E000C990B0E94720E8C818A30CCF602
:100D60004AE0BE01675F7F4F082E000C990B0E947E
:100D7000720E80E388878AE38A878D87DF91CF911F
:100D80000895CF939091EC01911110C02091E5014D
:100D90003091E601A901480F511DCA01883E53E078
:100DA000950734F49093E6018093E501CF9108957F
:100DB000885E93409093E6018093E501C091E9013C
:100DC0000E94FC04809116028093E7018091180232
:100DD0008093E80180911A028093E90190912202A8
:100DE000973079F09093EA01811102C0C73161F028
:100DF00085EE91E00E94670681E08093EB01CF9140
:100E000008951092EA01F0CFE091EA0184E0E8024F
:100E1000F0011124E45EFE4F1382EACF1F920F927D
:100E20000FB60F9211248F9310923801109239014E
:100E300080913A018C5F80933A018F910F900FBEA1
:100E40000F901F9018951F920F920FB60F921124BA
:100E50008F939F9383B190913901911112C090911A
:100E600039019F5F909339018695817090910401BB
:100E7000891739F08093040191E0811190E09093FB
:100E80003C019F918F910F900FBE0F901F9018956E
:100E90001F920F920FB60F9211242F933F934F93EF
:100EA0005F938F939F9396B18091380181111CC0FD
:100EB000809138018F5F80933801892F817041E0E4
:100EC00050E0209114018217D1F0282F30E0242324
:100ED0003523232B39F0969591708917C9F091E04D
:100EE00090933B01809314019F918F915F914F915B
:100EF0003F912F910F900FBE0F901F90189540E0DB
:100F000050E0282F30E024233523232B59F3E3CF5F
:100F10009FEF90933B01E6CFCF92DF92EF92FF924B
:100F2000E091EA0120911901422F90911801592F67
:100F30003091E9012917ECF432170CF483C039170A
:100F40000CF080C04091170141110CC02A9A91E029
:100F5000909317012091190132171CF190911801FB
:100F60003917FCF4422F491325C02A981092170113
:100F700021C032170CF46DC020911701211118C047
:100F8000491709F47DC02A9A91E090931701909136
:100F90001801592F40911901391754F034170CF0EA
:100FA0006FC02A9810921701409119019091180171
:100FB0004917D9F2F0E0EE0FFF1FEE0FFF1FE45EBE
:100FC000FE4F9281911139C09081931709F44AC064
:100FD0004091000150910101609102017091030163
:100FE0004F3F9FEF59076907790739F16A017B0184
:100FF000C80ED11CE11CF11CC0920001D09201016D
:10100000E0920201F0920301A0911A01B0911B013C
:101010002AEB30E00E942A0EC616D706E806F9062B
:1010200064F028988FEF9FEFDC018093000190938C
:101030000101A0930201B0930301FF90EF90DF90B4
:10104000CF900895909117019111ABCF422F952F1A
:10105000AFCF39170CF4ACCF20911701222309F43C
:10106000A7CF9FCF93819111B3CF9181992309F499
:10107000AFCF289A91E0938340E050E0BA01B6CF19
:10108000952F96CFF999FECF8AE090E092BD81BD71
:10109000F89A80B580931901F999FECF8CE090E021
:1010A00092BD81BDF89A80B580931801F999FECF61
:1010B0008EE090E092BD81BDF89A80B52AE0829FD3
:1010C000C001112490931B0180931A01EDE1F1E01E
:1010D00082E190E031E0F999FECF92BD81BDF89AAE
:1010E00020B5DF0111972C93283141F030833496DD
:1010F000019621E0E933F20771F708951082F7CFE6
:10110000F999FECF92BD81BDF89A20B5621749F0DA
:10111000F999FECF92BD81BD60BDF894FA9AF99A13
:1011200078940895CF92DF92EF92FF920F931F93DE
:10113000CF93DF93CDB7DEB729970FB6F894DEBF14
:101140000FBECDBFF82EE62E142F0E9461028091B3
:101150000601882309F46BC080910701882309F4F4
:1011600053C180910801811182C0112309F488C004
:10117000109205018091EB01811109C08091EC0171
:10118000811105C080910901882309F4BCC219822C
:101190001A821B8260E081E80E94EA018091EA01E4
:1011A00027E08202C001112480569D4F0E949002C8
:1011B00060E086E80E94EA018091ED01882351F009
:1011C0000EEE11E061E00E94EA01F80181918F01C9
:1011D0008111F8CF80910601882309F4EAC2813099
:1011E00009F48DC31092EB01813009F445C28230BD
:1011F00009F4A1C28091150180310CF400C1805D19
:10120000806860E00E94EA010E94FB0110920901DF
:1012100029960FB6F894DEBF0FBECDBFDF91CF91F8
:101220001F910F91FF90EF90DF90CF9008958091E4
:1012300007018111F2C0909105019F0D94300CF4CB
:1012400060C08CEF980F90930501FF2009F464C0F3
:1012500081E080930801EE2009F4EEC081E08093E4
:1012600006018093080110921601E12CF12C0E94D6
:10127000AE021092080181E080930901111178CF2C
:1012800080910501813009F44AC00CF45EC18230BE
:1012900009F47EC0833009F0ADCF8091090181113E
:1012A00057C180910601813009F4A3C1823009F051
:1012B000A1CFFF20A1F080911601811146C380913A
:1012C00019018F0D88310CF0BEC387FD09C490E071
:1012D000F92EF80EF092190181E080930801EE20BA
:1012E00009F488CF81E0809306018091160188235C
:1012F00009F468C3813009F4D7C381E08093080101
:1013000079CF892F881F8827881F880F880F980F0B
:1013100090930501F1109CCFE110A0CF22CF8091D6
:1013200009018111B8C080910601813009F483C19F
:10133000823009F05FCF20911601022E000C330B92
:10134000A901440F551F440F551FFA01E45EFE4FDB
:1013500081E0828390819F0D99310CF0D7C197FD78
:101360006EC360E0690FFA01E45EFE4F608368318E
:1013700009F4CEC281E08183E110B1C2FF2019F0EF
:1013800081E08093080184E18093150184EC39CFDA
:1013900080910901811152C080910601813009F0CC
:1013A00029CFFF2029F180911A0190911B018436E9
:1013B000910509F4BFC29C01215031092336310542
:1013C00008F0DDC22F2D3AE02302800D911D11247B
:1013D000883E23E092070CF4B3C228E13CEF820F71
:1013E000931F90931B0180931A0181E08093080161
:1013F000E110BCC180E18093150180EC02CF60E078
:1014000080680E94EA0100CF0E947D0281E0809303
:101410000701809106018111A4CE0E9487021092DB
:1014200007018091060181119CCE909105019F0DCD
:1014300094300CF006CF65CFF12C19CF60911A01D2
:1014400070911B01072E000C880B990B2AE0AE014E
:101450004F5F5F4F0E947D0E60E080E80E94EA01CE
:1014600082E392E00E94900260E080EC0E94EA0138
:101470008981882359F08E010E5F1F4F61E00E9421
:10148000EA01F80181918F018111F8CF8EE292E09B
:101490000E94900281CF60E080E80E94EA018BE622
:1014A00092E00E94900280910601882309F4A2CE66
:1014B00060E080EC0E94EA0180911601873009F417
:1014C000ECC2F7E08F02C001112480569D4F0E94AC
:1014D0009002E091160124E0E202F0011124E45EA2
:1014E000FE4F8181882309F4B5C28EE492E00E9408
:1014F000900219821A821B82E091160134E0E30205
:10150000F0011124E45EFE4F108197E61902912D3F
:1015100011249595959517FD939580E3890F8983FF
:10152000EAE09E9F10191124105D1A836E01F3E00A
:10153000CF0ED11C04C0812FF60111916F0161E023
:101540000E94EA011111F7CFEECE811153CE12CED7
:10155000809119014AE0BE01695F7F4F082E000C9F
:10156000990B0E94720E809118014AE0BE016F5FD4
:101570007F4F082E000C990B0E94720E60E080E8ED
:101580000E94EA018DE192E00E9490028091160192
:1015900060E0823009F4E2C080EC0E94EA0181E15F
:1015A00092E00E9490028F81882359F08E01085F9B
:1015B0001F4F61E00E94EA01F80181918F018111C2
:1015C000F8CF60E089EC0E94EA018BE092E00E9493
:1015D00090028981882309F464CE8E010E5F1F4F2B
:1015E00061E00E94EA01F80181918F018111F8CF39
:1015F00058CE80911601FF2069F08F0D83300CF0DA
:1016000097C187FD5BC290E0890F8093160191E03E
:1016100090930801EE2009F487C0823009F409C2D2
:1016200092E09093060191E090930801813009F4D3
:10163000A4C186E17DC0909116019F0D98300CF4F5
:101640006BC028EF920F90931601EE2049F097306F
:1016500009F060C11092060181E08093080180E0EA
:1016600090E190931501FF2009F4C4CD91E090938F
:101670000801E12CF12C5CCE809116018F0D853094
:101680000CF446C09BEF890F80931601823009F459
:101690007DC10CF018C1882309F47CC1813009F0A8
:1016A00077C086E080931501EE2009F4A3CD82E097
:1016B0008093060181E08093EC010E946A02809190
:1016C0001601813009F4CBC10CF402C2823009F456
:1016D000D5C1833089F4F12CE12C8091E7018F0D85
:1016E0008C330CF0F3C187FD01C290E0F92EF80EA7
:1016F000F092E701E1106DC185EE91E00E9467066E
:101700008091150179CD809106016ECD67EE2ACECC
:1017100087FD97C190E0B7CF292F221F2227221FD4
:10172000220F220F220F8ECF823009F07FCF80E16F
:101730008093150164CD81E08093EC010E946A02E0
:1017400080911601813009F48CC10CF42BC18230D8
:1017500009F496C1833009F4C0CFCCCF80EC0E944D
:10176000EA0188E192E00E9490029BCD109206016E
:1017700081E08093080180911A0190911B016AE039
:1017800070E00E94100E8EE090E00E94800832CE41
:10179000EE2009F42FCD87FD2DCD84300CF487CFBA
:1017A000843009F027CD1092060181E08093080172
:1017B00021CD60E080EC0E94EA018DE992E00E9478
:1017C0009002E091EA0124E0E202F0011124E45EDB
:1017D000FE4F1081183109F438C197E61902912D96
:1017E00011249595959517FD939580E3890F89832D
:1017F0003AE0939F10191124105D1A836E0193E053
:10180000C90ED11C04C0812FF60111916F0161E056
:101810000E94EA011111F7CF60E088EC0E94EA0112
:101820009091180180911901981709F49FC080E9DF
:1018300092E00E9490021091190197E61902912DF1
:1018400011249595959517FD939580E3890F8983CC
:10185000FAE09F9F10191124105D1A839E012D5FDD
:101860003F4F690104C0812FF60111916F0161E0C2
:101870000E94EA011111F7CF8EE892E00E949002D7
:101880001091180197E61902912D112495959595BF
:1018900017FD939580E3890F89833AE0939F101990
:1018A0001124105D1A83FE0133966F0104C0812F4D
:1018B000F60111916F0161E00E94EA011111F7CF69
:1018C000809106018FCC833009F468C0843009F020
:1018D0005FCF8BE180931501E11065CF8BCC11E0D8
:1018E00010930601FA01E45EFE4F1282C90142968E
:1018F0000E9480080E947402109308013FCD60E0AE
:1019000080EC0E94EA018CE792E00E949002D8CF1E
:10191000118232CD82E0809306010E946A0280919A
:10192000060190E190931501F110A0CEE12C00CDBD
:101930009DEF6ACEF1E0FF1609F4CFC08AE590E092
:1019400097FDB9C020E030E04ACD813009F0C4CC29
:10195000809118018F0D88310CF0A4C087FDC2C0A2
:1019600090E0F92EF80EF0921801B6CC83E992E0DF
:101970000E9490028091060135CC8EE1D9CEEF2DE8
:10198000F2E3EF02800D911D112422CD89E08093B6
:1019900015018ACE81E08093150186CE8CE080937C
:1019A000150182CE8111A6CE8091EA018F0D87307C
:1019B0000CF08AC087FD98C090E0F92EF80EF092E6
:1019C000EA0198CE609119018AE090E00E948008B7
:1019D00094CC81E0809306010E9474028091E7011B
:1019E000082E000C990B9093170280931602809199
:1019F000E801082E000C990B9093190280931802AD
:101A00008091E901082E000C990B90931B028093A2
:101A10001A028091EA01082E000C990B9093230280
:101A20008093220286E192E00E94D5051092EC019B
:101A300063CE109206011092160180E0F4CD69E1A8
:101A400091CC95E020CE98EE43CC8AE992E00E94BA
:101A50009002E2CE83E492E00E94900264CCF12CEA
:101A6000E12C8091E9018F0D883154F587FD40C04C
:101A700090E0F92EF80EF092E9013CCEF12CE12C29
:101A80008091E8018F0D8C33ECF487FD33C090E03A
:101A9000F92EF80EF092E8012DCE8AE592E00E9430
:101AA000900241CC98EE5DCF609118018CE090E0FF
:101AB0000E94800822CC28EE33E091CC93E0A4CDA4
:101AC00098EED7CF94ECE4CF99EF77CF94EC0ECE8D
:101AD000811112CEF12CE12C67CF86E990E030CF56
:101AE00098E1F6CB98E13DCF97E067CF9CE3FECD40
:101AF00098E1BFCF9CE3CCCF289A2A9A2F9A2F9AAD
:101B000028982A9823E02093B00085E08093B100C4
:101B10008DE78093B30092E090937000219887B195
:101B20008C7F87B9299A88B1836088B9209368002F
:101B300081E080936C0090936B000E9442080E94A9
:101B400005028AEF91E00E9490022FEF89E698E16A
:101B5000215080409040E1F700C000000E94BE028A
:101B600078941092EB011092E6011092E5010E9428
:101B7000CD0480E191E00E94540E8C5F8093E701D8
:101B80008DE091E00E94540E8093E8018AE091E09C
:101B90000E94540E8093E90186E08093EA010E943E
:101BA000FC04809116028093E701809118028093D3
:101BB000E80180911A028093E901809122028093CA
:101BC000EA0185EE91E00E946706C0E0D0E08091D6
:101BD0003A01811114C0C837D105C8F7C857D109D7
:101BE00060913C0180913B0140E00E94920810927C
:101BF0003B0110923C0180913A01882361F380916E
:101C00003A0180913A01C80FD11D80913A010E949A
:101C1000C10680913A010E948C0710923A01DBCFF5
:101C200097FB072E16F4009407D077FD09D00E9489
:101C3000310E07FC05D03EF4909581959F4F089595
:101C4000709561957F4F0895EE0FFF1F0590F491F9
:101C5000E02D09940E94450EB7FF0895821B930B57
:101C60000895AA1BBB1B51E107C0AA1FBB1FA617E3
:101C7000B70710F0A61BB70B881F991F5A95A9F735
:101C800080959095BC01CD010895A29FB001B39FAE
:101C9000C001A39F700D811D1124911DB29F700D75
:101CA000811D1124911D0895FC0188279927E8942E
:101CB00021912032E9F3293010F02E30C8F32B3275
:101CC00041F02D3239F4689404C00E948C0E820FCA
:101CD000911D219120532A30C0F31EF490958195D7
:101CE0009F4F0895BB274A3031F4992322F4BDE277
:101CF000909581959F4F0C94B70EBB272A3051F4D5
:101D0000992342F4BDE290958095709561957F4F3F
:101D10008F4F9F4F0C94950E7AE0979F902D879F41
:101D2000802D910D11240895BB27FA01A62F62176B
:101D3000710581059105330B30FB66F0AA27660F0C
:101D4000771F881F991FAA1FA21710F0A21B639567
:101D50003850A9F7A05DAA3308F0A95DA19336F722
:101D6000B111B1931082CA010C94D00EBB27FB01B4
:101D70005527AA27880F991FAA1FA41710F0A41B84
:101D800083955051B9F7A05DAA3308F0A95DA193DE
:101D9000009779F7B111B1931192CB010C94D00E49
:101DA000DC01FC01672F71917723E1F7329704C0C2
:101DB0007C916D9370836291AE17BF07C8F308954D
:041DC000F894FFCFC5
:101DC400FFFFFFFF01000000010031363A30313AD5
:041DD40031370000A3
:00000001FF
